{
  "abi": [
    {
      "inputs": [],
      "stateMutability": "nonpayable",
      "type": "constructor"
    },
    {
      "inputs": [
        {
          "internalType": "contract IERC1155",
          "name": "_token",
          "type": "address"
        },
        {
          "internalType": "address[]",
          "name": "_to",
          "type": "address[]"
        },
        {
          "internalType": "uint256[]",
          "name": "_id",
          "type": "uint256[]"
        },
        {
          "internalType": "uint256[]",
          "name": "_amount",
          "type": "uint256[]"
        }
      ],
      "name": "bulkAirdropERC1155",
      "outputs": [],
      "stateMutability": "nonpayable",
      "type": "function"
    },
    {
      "inputs": [
        {
          "internalType": "contract IERC20",
          "name": "_token",
          "type": "address"
        },
        {
          "internalType": "address[]",
          "name": "_to",
          "type": "address[]"
        },
        {
          "internalType": "uint256[]",
          "name": "_value",
          "type": "uint256[]"
        }
      ],
      "name": "bulkAirdropERC20",
      "outputs": [],
      "stateMutability": "nonpayable",
      "type": "function"
    },
    {
      "inputs": [
        {
          "internalType": "contract IERC721",
          "name": "_token",
          "type": "address"
        },
        {
          "internalType": "address[]",
          "name": "_to",
          "type": "address[]"
        },
        {
          "internalType": "uint256[]",
          "name": "_id",
          "type": "uint256[]"
        }
      ],
      "name": "bulkAirdropERC721",
      "outputs": [],
      "stateMutability": "nonpayable",
      "type": "function"
    }
  ],
  "bytecode": {
    "object": "0x608060405234801561001057600080fd5b506106e4806100206000396000f3fe608060405234801561001057600080fd5b50600436106100415760003560e01c8063242ab770146100465780637561a9dc1461005b578063cdb970d31461006e575b600080fd5b6100596100543660046104fb565b610081565b005b61005961006936600461057e565b6101df565b61005961007c3660046104fb565b610363565b8281146100e85760405162461bcd60e51b815260206004820152602a60248201527f52656365697665727320616e6420416d6f756e747320617265206469666665726044820152690cadce840d8cadccee8d60b31b60648201526084015b60405180910390fd5b60005b838110156101d757856001600160a01b03166323b872dd338787858181106101155761011561062b565b905060200201602081019061012a9190610641565b86868681811061013c5761013c61062b565b6040516001600160e01b031960e088901b1681526001600160a01b039586166004820152949093166024850152506020909102013560448201526064016020604051808303816000875af1158015610198573d6000803e3d6000fd5b505050506040513d601f19601f820116820180604052508101906101bc9190610665565b6101c557600080fd5b806101cf81610687565b9150506100eb565b505050505050565b84831480156101ed57508281145b6102545760405162461bcd60e51b815260206004820152603260248201527f52656365697665727320616e642049447320616e6420416d6f756e74732061726044820152710ca40c8d2cccccae4cadce840d8cadccee8d60731b60648201526084016100df565b60005b8581101561035957876001600160a01b031663f242432a338989858181106102815761028161062b565b90506020020160208101906102969190610641565b8888868181106102a8576102a861062b565b905060200201358787878181106102c1576102c161062b565b6040516001600160e01b031960e089901b1681526001600160a01b03968716600482015295909416602486015250604484019190915260209091020135606482015260a06084820152600060a482015260c401600060405180830381600087803b15801561032e57600080fd5b505af1158015610342573d6000803e3d6000fd5b50505050808061035190610687565b915050610257565b5050505050505050565b8281146103c15760405162461bcd60e51b815260206004820152602660248201527f52656365697665727320616e64204944732061726520646966666572656e74206044820152650d8cadccee8d60d31b60648201526084016100df565b60005b838110156101d757856001600160a01b03166323b872dd338787858181106103ee576103ee61062b565b90506020020160208101906104039190610641565b8686868181106104155761041561062b565b6040516001600160e01b031960e088901b1681526001600160a01b03958616600482015294909316602485015250602090910201356044820152606401600060405180830381600087803b15801561046c57600080fd5b505af1158015610480573d6000803e3d6000fd5b50505050808061048f90610687565b9150506103c4565b6001600160a01b03811681146104ac57600080fd5b50565b60008083601f8401126104c157600080fd5b50813567ffffffffffffffff8111156104d957600080fd5b6020830191508360208260051b85010111156104f457600080fd5b9250929050565b60008060008060006060868803121561051357600080fd5b853561051e81610497565b9450602086013567ffffffffffffffff8082111561053b57600080fd5b61054789838a016104af565b9096509450604088013591508082111561056057600080fd5b5061056d888289016104af565b969995985093965092949392505050565b60008060008060008060006080888a03121561059957600080fd5b87356105a481610497565b9650602088013567ffffffffffffffff808211156105c157600080fd5b6105cd8b838c016104af565b909850965060408a01359150808211156105e657600080fd5b6105f28b838c016104af565b909650945060608a013591508082111561060b57600080fd5b506106188a828b016104af565b989b979a50959850939692959293505050565b634e487b7160e01b600052603260045260246000fd5b60006020828403121561065357600080fd5b813561065e81610497565b9392505050565b60006020828403121561067757600080fd5b8151801515811461065e57600080fd5b6000600182016106a757634e487b7160e01b600052601160045260246000fd5b506001019056fea26469706673582212208aeb67036b2d89626a95d8ba8d838e57a0305ccbf26565575f266be1bd0bbe2864736f6c63430008140033",
    "linkReferences": {}
  },
  "methodIdentifiers": {
    "bulkAirdropERC1155(address,address[],uint256[],uint256[])": "7561a9dc",
    "bulkAirdropERC20(address,address[],uint256[])": "242ab770",
    "bulkAirdropERC721(address,address[],uint256[])": "cdb970d3"
  },
  "id": 31
}