{
  "abi": [
    {
      "inputs": [],
      "stateMutability": "nonpayable",
      "type": "constructor"
    },
    {
      "anonymous": false,
      "inputs": [
        {
          "indexed": true,
          "internalType": "address",
          "name": "owner",
          "type": "address"
        },
        {
          "indexed": true,
          "internalType": "address",
          "name": "spender",
          "type": "address"
        },
        {
          "indexed": false,
          "internalType": "uint256",
          "name": "value",
          "type": "uint256"
        }
      ],
      "name": "Approval",
      "type": "event"
    },
    {
      "anonymous": false,
      "inputs": [
        {
          "indexed": true,
          "internalType": "address",
          "name": "from",
          "type": "address"
        },
        {
          "indexed": true,
          "internalType": "address",
          "name": "to",
          "type": "address"
        },
        {
          "indexed": false,
          "internalType": "uint256",
          "name": "value",
          "type": "uint256"
        }
      ],
      "name": "Transfer",
      "type": "event"
    },
    {
      "inputs": [
        {
          "internalType": "address",
          "name": "owner",
          "type": "address"
        },
        {
          "internalType": "address",
          "name": "spender",
          "type": "address"
        }
      ],
      "name": "allowance",
      "outputs": [
        {
          "internalType": "uint256",
          "name": "",
          "type": "uint256"
        }
      ],
      "stateMutability": "view",
      "type": "function"
    },
    {
      "inputs": [
        {
          "internalType": "address",
          "name": "spender",
          "type": "address"
        },
        {
          "internalType": "uint256",
          "name": "amount",
          "type": "uint256"
        }
      ],
      "name": "approve",
      "outputs": [
        {
          "internalType": "bool",
          "name": "",
          "type": "bool"
        }
      ],
      "stateMutability": "nonpayable",
      "type": "function"
    },
    {
      "inputs": [
        {
          "internalType": "address",
          "name": "account",
          "type": "address"
        }
      ],
      "name": "balanceOf",
      "outputs": [
        {
          "internalType": "uint256",
          "name": "",
          "type": "uint256"
        }
      ],
      "stateMutability": "view",
      "type": "function"
    },
    {
      "inputs": [],
      "name": "decimals",
      "outputs": [
        {
          "internalType": "uint8",
          "name": "",
          "type": "uint8"
        }
      ],
      "stateMutability": "view",
      "type": "function"
    },
    {
      "inputs": [
        {
          "internalType": "address",
          "name": "spender",
          "type": "address"
        },
        {
          "internalType": "uint256",
          "name": "subtractedValue",
          "type": "uint256"
        }
      ],
      "name": "decreaseAllowance",
      "outputs": [
        {
          "internalType": "bool",
          "name": "",
          "type": "bool"
        }
      ],
      "stateMutability": "nonpayable",
      "type": "function"
    },
    {
      "inputs": [
        {
          "internalType": "address",
          "name": "spender",
          "type": "address"
        },
        {
          "internalType": "uint256",
          "name": "addedValue",
          "type": "uint256"
        }
      ],
      "name": "increaseAllowance",
      "outputs": [
        {
          "internalType": "bool",
          "name": "",
          "type": "bool"
        }
      ],
      "stateMutability": "nonpayable",
      "type": "function"
    },
    {
      "inputs": [],
      "name": "name",
      "outputs": [
        {
          "internalType": "string",
          "name": "",
          "type": "string"
        }
      ],
      "stateMutability": "view",
      "type": "function"
    },
    {
      "inputs": [
        {
          "internalType": "address",
          "name": "from",
          "type": "address"
        },
        {
          "internalType": "string",
          "name": "plan",
          "type": "string"
        }
      ],
      "name": "subscription",
      "outputs": [],
      "stateMutability": "nonpayable",
      "type": "function"
    },
    {
      "inputs": [],
      "name": "symbol",
      "outputs": [
        {
          "internalType": "string",
          "name": "",
          "type": "string"
        }
      ],
      "stateMutability": "view",
      "type": "function"
    },
    {
      "inputs": [],
      "name": "totalSupply",
      "outputs": [
        {
          "internalType": "uint256",
          "name": "",
          "type": "uint256"
        }
      ],
      "stateMutability": "view",
      "type": "function"
    },
    {
      "inputs": [
        {
          "internalType": "address",
          "name": "to",
          "type": "address"
        },
        {
          "internalType": "uint256",
          "name": "amount",
          "type": "uint256"
        }
      ],
      "name": "transfer",
      "outputs": [
        {
          "internalType": "bool",
          "name": "",
          "type": "bool"
        }
      ],
      "stateMutability": "nonpayable",
      "type": "function"
    },
    {
      "inputs": [
        {
          "internalType": "address",
          "name": "from",
          "type": "address"
        },
        {
          "internalType": "address",
          "name": "to",
          "type": "address"
        },
        {
          "internalType": "uint256",
          "name": "amount",
          "type": "uint256"
        }
      ],
      "name": "transferFrom",
      "outputs": [
        {
          "internalType": "bool",
          "name": "",
          "type": "bool"
        }
      ],
      "stateMutability": "nonpayable",
      "type": "function"
    }
  ],
  "bytecode": {
    "object": "0x60806040523480156200001157600080fd5b5060405180604001604052806005815260200164536176767960d81b8152506040518060400160405280600381526020016253565960e81b81525081600390816200005d919062000201565b5060046200006c828262000201565b5050506200008c336a52b7d2dcc80cd2e40000006200009260201b60201c565b620002f5565b6001600160a01b038216620000ed5760405162461bcd60e51b815260206004820152601f60248201527f45524332303a206d696e7420746f20746865207a65726f206164647265737300604482015260640160405180910390fd5b8060026000828254620001019190620002cd565b90915550506001600160a01b038216600081815260208181526040808320805486019055518481527fddf252ad1be2c89b69c2b068fc378daa952ba7f163c4a11628f55a4df523b3ef910160405180910390a35050565b505050565b634e487b7160e01b600052604160045260246000fd5b600181811c908216806200018857607f821691505b602082108103620001a957634e487b7160e01b600052602260045260246000fd5b50919050565b601f8211156200015857600081815260208120601f850160051c81016020861015620001d85750805b601f850160051c820191505b81811015620001f957828155600101620001e4565b505050505050565b81516001600160401b038111156200021d576200021d6200015d565b62000235816200022e845462000173565b84620001af565b602080601f8311600181146200026d5760008415620002545750858301515b600019600386901b1c1916600185901b178555620001f9565b600085815260208120601f198616915b828110156200029e578886015182559484019460019091019084016200027d565b5085821015620002bd5787850151600019600388901b60f8161c191681555b5050505050600190811b01905550565b80820180821115620002ef57634e487b7160e01b600052601160045260246000fd5b92915050565b610b9180620003056000396000f3fe608060405234801561001057600080fd5b50600436106100b45760003560e01c80635560a948116100715780635560a9481461014157806370a082311461015657806395d89b411461017f578063a457c2d714610187578063a9059cbb1461019a578063dd62ed3e146101ad57600080fd5b806306fdde03146100b9578063095ea7b3146100d757806318160ddd146100fa57806323b872dd1461010c578063313ce5671461011f578063395093511461012e575b600080fd5b6100c16101c0565b6040516100ce91906108e8565b60405180910390f35b6100ea6100e5366004610952565b610252565b60405190151581526020016100ce565b6002545b6040519081526020016100ce565b6100ea61011a36600461097c565b61026c565b604051601281526020016100ce565b6100ea61013c366004610952565b610290565b61015461014f3660046109ce565b6102b2565b005b6100fe610164366004610a90565b6001600160a01b031660009081526020819052604090205490565b6100c16104e3565b6100ea610195366004610952565b6104f2565b6100ea6101a8366004610952565b61056d565b6100fe6101bb366004610ab2565b61057b565b6060600380546101cf90610ae5565b80601f01602080910402602001604051908101604052809291908181526020018280546101fb90610ae5565b80156102485780601f1061021d57610100808354040283529160200191610248565b820191906000526020600020905b81548152906001019060200180831161022b57829003601f168201915b5050505050905090565b6000336102608185856105a6565b60019150505b92915050565b60003361027a8582856106ca565b610285858585610744565b506001949350505050565b6000336102608185856102a3838361057b565b6102ad9190610b35565b6105a6565b604080518082019091526004815263706c757360e01b60209182015281519082012060009081907fc96861d467e523b4adecc9e95b99a2448966c5f338705c2f45df81466b1ea9710161032557507316c348c6309460080e1614fffe54cab666d0a93a9050678ac7230489e800006103d4565b604080518082019091526008815267627573696e65737360c01b6020918201528351908401207fb9c68761ea008b73d11a52c175168bf71e44ab98e001c88881a5101e578ea5d80161039857507316c348c6309460080e1614fffe54cab666d0a93a905068056bc75e2d631000006103d4565b60405162461bcd60e51b815260206004820152600c60248201526b24b73b30b634b210383630b760a11b60448201526064015b60405180910390fd5b806103df853361057b565b10156104265760405162461bcd60e51b8152602060048201526016602482015275496e73756666696369656e7420616c6c6f77616e636560501b60448201526064016103cb565b6001600160a01b038416600090815260056020526040902054429061044c81603c610b35565b82101561049b5760405162461bcd60e51b815260206004820152601e60248201527f537562736372697074696f6e206e6f742079657420617661696c61626c65000060448201526064016103cb565b6001600160a01b03861660009081526005602052604090208290556104d08633856104c6838361057b565b6102ad9190610b48565b6104db868585610744565b505050505050565b6060600480546101cf90610ae5565b60003381610500828661057b565b9050838110156105605760405162461bcd60e51b815260206004820152602560248201527f45524332303a2064656372656173656420616c6c6f77616e63652062656c6f77604482015264207a65726f60d81b60648201526084016103cb565b61028582868684036105a6565b600033610260818585610744565b6001600160a01b03918216600090815260016020908152604080832093909416825291909152205490565b6001600160a01b0383166106085760405162461bcd60e51b8152602060048201526024808201527f45524332303a20617070726f76652066726f6d20746865207a65726f206164646044820152637265737360e01b60648201526084016103cb565b6001600160a01b0382166106695760405162461bcd60e51b815260206004820152602260248201527f45524332303a20617070726f766520746f20746865207a65726f206164647265604482015261737360f01b60648201526084016103cb565b6001600160a01b0383811660008181526001602090815260408083209487168084529482529182902085905590518481527f8c5be1e5ebec7d5bd14f71427d1e84f3dd0314c0f7b2291e5b200ac8c7c3b925910160405180910390a3505050565b60006106d6848461057b565b9050600019811461073e57818110156107315760405162461bcd60e51b815260206004820152601d60248201527f45524332303a20696e73756666696369656e7420616c6c6f77616e636500000060448201526064016103cb565b61073e84848484036105a6565b50505050565b6001600160a01b0383166107a85760405162461bcd60e51b815260206004820152602560248201527f45524332303a207472616e736665722066726f6d20746865207a65726f206164604482015264647265737360d81b60648201526084016103cb565b6001600160a01b03821661080a5760405162461bcd60e51b815260206004820152602360248201527f45524332303a207472616e7366657220746f20746865207a65726f206164647260448201526265737360e81b60648201526084016103cb565b6001600160a01b038316600090815260208190526040902054818110156108825760405162461bcd60e51b815260206004820152602660248201527f45524332303a207472616e7366657220616d6f756e7420657863656564732062604482015265616c616e636560d01b60648201526084016103cb565b6001600160a01b03848116600081815260208181526040808320878703905593871680835291849020805487019055925185815290927fddf252ad1be2c89b69c2b068fc378daa952ba7f163c4a11628f55a4df523b3ef910160405180910390a361073e565b600060208083528351808285015260005b81811015610915578581018301518582016040015282016108f9565b506000604082860101526040601f19601f8301168501019250505092915050565b80356001600160a01b038116811461094d57600080fd5b919050565b6000806040838503121561096557600080fd5b61096e83610936565b946020939093013593505050565b60008060006060848603121561099157600080fd5b61099a84610936565b92506109a860208501610936565b9150604084013590509250925092565b634e487b7160e01b600052604160045260246000fd5b600080604083850312156109e157600080fd5b6109ea83610936565b9150602083013567ffffffffffffffff80821115610a0757600080fd5b818501915085601f830112610a1b57600080fd5b813581811115610a2d57610a2d6109b8565b604051601f8201601f19908116603f01168101908382118183101715610a5557610a556109b8565b81604052828152886020848701011115610a6e57600080fd5b8260208601602083013760006020848301015280955050505050509250929050565b600060208284031215610aa257600080fd5b610aab82610936565b9392505050565b60008060408385031215610ac557600080fd5b610ace83610936565b9150610adc60208401610936565b90509250929050565b600181811c90821680610af957607f821691505b602082108103610b1957634e487b7160e01b600052602260045260246000fd5b50919050565b634e487b7160e01b600052601160045260246000fd5b8082018082111561026657610266610b1f565b8181038181111561026657610266610b1f56fea2646970667358221220ff7c67a051f11fdea7f5dd2a71c56a32011ca31d252954c02530b9f597a827c764736f6c63430008140033",
    "linkReferences": {}
  },
  "methodIdentifiers": {
    "allowance(address,address)": "dd62ed3e",
    "approve(address,uint256)": "095ea7b3",
    "balanceOf(address)": "70a08231",
    "decimals()": "313ce567",
    "decreaseAllowance(address,uint256)": "a457c2d7",
    "increaseAllowance(address,uint256)": "39509351",
    "name()": "06fdde03",
    "subscription(address,string)": "5560a948",
    "symbol()": "95d89b41",
    "totalSupply()": "18160ddd",
    "transfer(address,uint256)": "a9059cbb",
    "transferFrom(address,address,uint256)": "23b872dd"
  },
  "id": 6
}